{
  "_format": "hh-sol-artifact-1",
  "contractName": "Ownable",
  "sourceName": "ownership/Ownable.sol",
  "abi": [
    {
      "inputs": [],
      "stateMutability": "nonpayable",
      "type": "constructor"
    },
    {
      "anonymous": false,
      "inputs": [
        {
          "indexed": false,
          "internalType": "address",
          "name": "oldOwner",
          "type": "address"
        },
        {
          "indexed": false,
          "internalType": "address",
          "name": "newOwner",
          "type": "address"
        }
      ],
      "name": "NewOwner",
      "type": "event"
    },
    {
      "inputs": [],
      "name": "contractOwner",
      "outputs": [
        {
          "internalType": "address",
          "name": "",
          "type": "address"
        }
      ],
      "stateMutability": "view",
      "type": "function"
    },
    {
      "inputs": [],
      "name": "isOwner",
      "outputs": [
        {
          "internalType": "bool",
          "name": "",
          "type": "bool"
        }
      ],
      "stateMutability": "view",
      "type": "function"
    },
    {
      "inputs": [
        {
          "internalType": "address",
          "name": "_newOwner",
          "type": "address"
        }
      ],
      "name": "transferOwnership",
      "outputs": [],
      "stateMutability": "nonpayable",
      "type": "function"
    }
  ],
  "bytecode": "0x608060405234801561001057600080fd5b50336000806101000a81548173ffffffffffffffffffffffffffffffffffffffff021916908373ffffffffffffffffffffffffffffffffffffffff160217905550610468806100606000396000f3fe608060405234801561001057600080fd5b50600436106100415760003560e01c80638f32d59b14610046578063ce606ee014610064578063f2fde38b14610082575b600080fd5b61004e61009e565b60405161005b9190610371565b60405180910390f35b61006c6100f5565b604051610079919061032d565b60405180910390f35b61009c60048036038101906100979190610266565b61011e565b005b60008060009054906101000a900473ffffffffffffffffffffffffffffffffffffffff1673ffffffffffffffffffffffffffffffffffffffff163373ffffffffffffffffffffffffffffffffffffffff1614905090565b60008060009054906101000a900473ffffffffffffffffffffffffffffffffffffffff16905090565b61012661009e565b610165576040517f08c379a000000000000000000000000000000000000000000000000000000000815260040161015c906103ac565b60405180910390fd5b600073ffffffffffffffffffffffffffffffffffffffff168173ffffffffffffffffffffffffffffffffffffffff1614156101d5576040517f08c379a00000000000000000000000000000000000000000000000000000000081526004016101cc9061038c565b60405180910390fd5b806000806101000a81548173ffffffffffffffffffffffffffffffffffffffff021916908373ffffffffffffffffffffffffffffffffffffffff1602179055507f70aea8d848e8a90fb7661b227dc522eb6395c3dac71b63cb59edd5c9899b23643382604051610246929190610348565b60405180910390a150565b6000813590506102608161041b565b92915050565b60006020828403121561027857600080fd5b600061028684828501610251565b91505092915050565b610298816103dd565b82525050565b6102a7816103ef565b82525050565b60006102ba601d836103cc565b91507f4f776e61626c653a2061646472657373206973206e6f742076616c69640000006000830152602082019050919050565b60006102fa6020836103cc565b91507f4f776e61626c653a2063616c6c6572206973206e6f7420746865206f776e65726000830152602082019050919050565b6000602082019050610342600083018461028f565b92915050565b600060408201905061035d600083018561028f565b61036a602083018461028f565b9392505050565b6000602082019050610386600083018461029e565b92915050565b600060208201905081810360008301526103a5816102ad565b9050919050565b600060208201905081810360008301526103c5816102ed565b9050919050565b600082825260208201905092915050565b60006103e8826103fb565b9050919050565b60008115159050919050565b600073ffffffffffffffffffffffffffffffffffffffff82169050919050565b610424816103dd565b811461042f57600080fd5b5056fea2646970667358221220192c8acee926262681bc75e71167cbd64b015eea67e803824a7315d1769781e664736f6c63430008000033",
  "linkReferences": {},
  "deployedLinkReferences": {}
}