{
  "_format": "hh-sol-artifact-1",
  "contractName": "Pausable",
  "sourceName": "lifecycle/Pausable.sol",
  "abi": [
    {
      "anonymous": false,
      "inputs": [
        {
          "indexed": false,
          "internalType": "address",
          "name": "oldOwner",
          "type": "address"
        },
        {
          "indexed": false,
          "internalType": "address",
          "name": "newOwner",
          "type": "address"
        }
      ],
      "name": "NewOwner",
      "type": "event"
    },
    {
      "anonymous": false,
      "inputs": [
        {
          "indexed": false,
          "internalType": "address",
          "name": "account",
          "type": "address"
        }
      ],
      "name": "Paused",
      "type": "event"
    },
    {
      "anonymous": false,
      "inputs": [
        {
          "indexed": false,
          "internalType": "address",
          "name": "account",
          "type": "address"
        }
      ],
      "name": "Unpaused",
      "type": "event"
    },
    {
      "inputs": [],
      "name": "contractOwner",
      "outputs": [
        {
          "internalType": "address",
          "name": "",
          "type": "address"
        }
      ],
      "stateMutability": "view",
      "type": "function"
    },
    {
      "inputs": [],
      "name": "isOwner",
      "outputs": [
        {
          "internalType": "bool",
          "name": "",
          "type": "bool"
        }
      ],
      "stateMutability": "view",
      "type": "function"
    },
    {
      "inputs": [],
      "name": "pause",
      "outputs": [],
      "stateMutability": "nonpayable",
      "type": "function"
    },
    {
      "inputs": [],
      "name": "paused",
      "outputs": [
        {
          "internalType": "bool",
          "name": "",
          "type": "bool"
        }
      ],
      "stateMutability": "view",
      "type": "function"
    },
    {
      "inputs": [
        {
          "internalType": "address",
          "name": "_newOwner",
          "type": "address"
        }
      ],
      "name": "transferOwnership",
      "outputs": [],
      "stateMutability": "nonpayable",
      "type": "function"
    },
    {
      "inputs": [],
      "name": "unpause",
      "outputs": [],
      "stateMutability": "nonpayable",
      "type": "function"
    }
  ],
  "bytecode": "0x608060405234801561001057600080fd5b50336000806101000a81548173ffffffffffffffffffffffffffffffffffffffff021916908373ffffffffffffffffffffffffffffffffffffffff160217905550610765806100606000396000f3fe608060405234801561001057600080fd5b50600436106100625760003560e01c80633f4ba83a146100675780635c975abb146100715780638456cb591461008f5780638f32d59b14610099578063ce606ee0146100b7578063f2fde38b146100d5575b600080fd5b61006f6100f1565b005b6100796101da565b604051610086919061062e565b60405180910390f35b6100976101f0565b005b6100a16102db565b6040516100ae919061062e565b60405180910390f35b6100bf610332565b6040516100cc91906105ea565b60405180910390f35b6100ef60048036038101906100ea91906104a3565b61035b565b005b6100f96102db565b610138576040517f08c379a000000000000000000000000000000000000000000000000000000000815260040161012f906106a9565b60405180910390fd5b600060149054906101000a900460ff16610187576040517f08c379a000000000000000000000000000000000000000000000000000000000815260040161017e90610649565b60405180910390fd5b60008060146101000a81548160ff0219169083151502179055507f5db9ee0a495bf2e6ff9c91a7834c1ba4fdd244a5e8aa4e537bd38aeae4b073aa336040516101d091906105ea565b60405180910390a1565b60008060149054906101000a900460ff16905090565b6101f86102db565b610237576040517f08c379a000000000000000000000000000000000000000000000000000000000815260040161022e906106a9565b60405180910390fd5b600060149054906101000a900460ff1615610287576040517f08c379a000000000000000000000000000000000000000000000000000000000815260040161027e90610669565b60405180910390fd5b6001600060146101000a81548160ff0219169083151502179055507f62e78cea01bee320cd4e420270b5ea74000d11b0c9f74754ebdbfc544b05a258336040516102d191906105ea565b60405180910390a1565b60008060009054906101000a900473ffffffffffffffffffffffffffffffffffffffff1673ffffffffffffffffffffffffffffffffffffffff163373ffffffffffffffffffffffffffffffffffffffff1614905090565b60008060009054906101000a900473ffffffffffffffffffffffffffffffffffffffff16905090565b6103636102db565b6103a2576040517f08c379a0000000000000000000000000000000000000000000000000000000008152600401610399906106a9565b60405180910390fd5b600073ffffffffffffffffffffffffffffffffffffffff168173ffffffffffffffffffffffffffffffffffffffff161415610412576040517f08c379a000000000000000000000000000000000000000000000000000000000815260040161040990610689565b60405180910390fd5b806000806101000a81548173ffffffffffffffffffffffffffffffffffffffff021916908373ffffffffffffffffffffffffffffffffffffffff1602179055507f70aea8d848e8a90fb7661b227dc522eb6395c3dac71b63cb59edd5c9899b23643382604051610483929190610605565b60405180910390a150565b60008135905061049d81610718565b92915050565b6000602082840312156104b557600080fd5b60006104c38482850161048e565b91505092915050565b6104d5816106da565b82525050565b6104e4816106ec565b82525050565b60006104f76014836106c9565b91507f5061757361626c653a206e6f74207061757365640000000000000000000000006000830152602082019050919050565b60006105376010836106c9565b91507f5061757361626c653a20706175736564000000000000000000000000000000006000830152602082019050919050565b6000610577601d836106c9565b91507f4f776e61626c653a2061646472657373206973206e6f742076616c69640000006000830152602082019050919050565b60006105b76020836106c9565b91507f4f776e61626c653a2063616c6c6572206973206e6f7420746865206f776e65726000830152602082019050919050565b60006020820190506105ff60008301846104cc565b92915050565b600060408201905061061a60008301856104cc565b61062760208301846104cc565b9392505050565b600060208201905061064360008301846104db565b92915050565b60006020820190508181036000830152610662816104ea565b9050919050565b600060208201905081810360008301526106828161052a565b9050919050565b600060208201905081810360008301526106a28161056a565b9050919050565b600060208201905081810360008301526106c2816105aa565b9050919050565b600082825260208201905092915050565b60006106e5826106f8565b9050919050565b60008115159050919050565b600073ffffffffffffffffffffffffffffffffffffffff82169050919050565b610721816106da565b811461072c57600080fd5b5056fea26469706673582212205db8c5d18696529d8448bc82eb509961390d3b29a14ffa5c58edebd8120a61b364736f6c63430008000033",
  "linkReferences": {},
  "deployedLinkReferences": {}
}